{
  "contractName": "InsurancePlatform",
  "abi": [
    {
      "constant": false,
      "inputs": [
        {
          "name": "_id",
          "type": "uint256"
        },
        {
          "name": "_data",
          "type": "string"
        }
      ],
      "name": "register_insuree",
      "outputs": [],
      "payable": false,
      "stateMutability": "nonpayable",
      "type": "function"
    }
  ],
  "bytecode": "0x608060405234801561001057600080fd5b5060e48061001f6000396000f300608060405260043610603f576000357c0100000000000000000000000000000000000000000000000000000000900463ffffffff168063f0810191146044575b600080fd5b348015604f57600080fd5b5060b260048036038101908080359060200190929190803590602001908201803590602001908080601f016020809104026020016040519081016040528093929190818152602001838380828437820191505050505050919291929050505060b4565b005b50505600a165627a7a7230582051320872a13374723feb8eb042e5c567211aab20ea2e46def43654543e10d2410029",
  "source": "pragma solidity ^0.4.8;\n\n\ncontract InsurancePlatform {\n\n\tenum Gender {\n\t    Male,\n\t    Female,\n\t    Other\n\t}\n\n\tstruct InsureeData {\n\t\tstring insuree_type;\n\t\taddress eth_address;\n\t\tuint age;\n\t\tGender gender;\n\t\tstring smoking;\n\t\tstring fam_cancer;\n\t\tuint med_bmi;\n\t\tuint assess_act_days_per_week;\n\t\tmapping (string => bool) data_streams;\n\t}\n\n\tstruct AuthorizedInsurances{\n\t\tstring insurane_name;\n\t}\n\n\tmapping (uint =>InsureeData) insuree_data;\n\n\tmapping (uint =>AuthorizedInsurances) authorized_insurances;\n\n\tfunction register_insuree (uint _id, string _data) {\n\t\t//insuree_data(_id) = InsureeData(_data);\n\t\t//insuree_data(_id).eth_address= msg.sender;\n\t\treturn;\n\t}\n\n\t// function request_data\n\t// function update_data_from_client(uint _id, string _data_stream) public {\n\t// \tanonymized_data = _data_stream;\n\t// }\n\n\t// function updateShares(uint _share) public {\n\t// \tshares[msg.sender] = getShares(msg.sender) + _share;\n\t// }\n\n\t// function getShares(address _addr) public view returns(uint) {\n\t// \treturn shares[_addr];\n\t// }\n\n  //function testNestedMappings() {\n    //@log test nested mappings\n    //mymap[1][2] = 42;\n    //@log mymap[1][2] = `uint mymap[1][2]`\n    //@log test struct array:\n    //@log someName[msg.sender][1].length = `uint someName[msg.sender][1].length`\n    //@log incrementing length\n    // someName[msg.sender][1].length++;\n    // //@log saving timestamp to last entry\n    // someName[msg.sender][1][someName[msg.sender][1].length - 1].timestamp = block.timestamp;\n    // //@log `uint someName[msg.sender][1][someName[msg.sender][1].length-1].timestamp`\n  }\n",
  "sourcePath": "/home/basilev/code/aiahackathaon/platformcontract/contracts/Platform.sol",
  "compiler": {
    "name": "solc",
    "version": "0.4.24+commit.e67f0147.Emscripten.clang"
  },
  "schemaVersion": "2.0.1",
  "updatedAt": "2018-11-18T04:33:56.856Z"
}