{
  "contractName": "InsurancePlatform",
  "abi": [
    {
      "constant": false,
      "inputs": [
        {
          "name": "share",
          "type": "uint256"
        }
      ],
      "name": "updateShares",
      "outputs": [],
      "payable": false,
      "stateMutability": "nonpayable",
      "type": "function"
    },
    {
      "constant": true,
      "inputs": [
        {
          "name": "addr",
          "type": "address"
        }
      ],
      "name": "getShares",
      "outputs": [
        {
          "name": "",
          "type": "uint256"
        }
      ],
      "payable": false,
      "stateMutability": "view",
      "type": "function"
    }
  ],
  "bytecode": "0x608060405234801561001057600080fd5b50610199806100206000396000f30060806040526004361061004c576000357c0100000000000000000000000000000000000000000000000000000000900463ffffffff168063b660846714610051578063f04da65b1461007e575b600080fd5b34801561005d57600080fd5b5061007c600480360381019080803590602001909291905050506100d5565b005b34801561008a57600080fd5b506100bf600480360381019080803573ffffffffffffffffffffffffffffffffffffffff169060200190929190505050610125565b6040518082815260200191505060405180910390f35b806100df33610125565b016000803373ffffffffffffffffffffffffffffffffffffffff1673ffffffffffffffffffffffffffffffffffffffff1681526020019081526020016000208190555050565b60008060008373ffffffffffffffffffffffffffffffffffffffff1673ffffffffffffffffffffffffffffffffffffffff1681526020019081526020016000205490509190505600a165627a7a72305820e8f99569ba4a7c6c62f594ee36bf9c2c4d6cf7c91ee5b8cdd631e3b7b76ac2130029",
  "source": "pragma solidity ^0.4.8;\ncontract InsurancePlatform {\n  mapping (address => uint) shares;\n \n  function updateShares(uint share) public {\n    shares[msg.sender] = getShares(msg.sender) + share;\n  }\n \n  function getShares(address addr) public view returns(uint) {\n    return shares[addr];\n  }\n}",
  "sourcePath": "/home/basilev/code/aiahackathaon/platformcontract/contracts/Platform.sol",
  "compiler": {
    "name": "solc",
    "version": "0.4.24+commit.e67f0147.Emscripten.clang"
  },
  "schemaVersion": "2.0.1",
  "updatedAt": "2018-11-18T01:29:29.656Z"
}