{
  "contractName": "InsurancePlatform",
  "abi": [
    {
      "inputs": [],
      "payable": false,
      "stateMutability": "nonpayable",
      "type": "constructor"
    },
    {
      "constant": true,
      "inputs": [
        {
          "name": "a",
          "type": "string"
        },
        {
          "name": "b",
          "type": "string"
        }
      ],
      "name": "compareStrings",
      "outputs": [
        {
          "name": "",
          "type": "bool"
        }
      ],
      "payable": false,
      "stateMutability": "view",
      "type": "function"
    },
    {
      "constant": false,
      "inputs": [
        {
          "name": "_id",
          "type": "uint256"
        },
        {
          "name": "_age",
          "type": "uint256"
        },
        {
          "name": "_gender",
          "type": "string"
        }
      ],
      "name": "register_insuree",
      "outputs": [
        {
          "name": "",
          "type": "bool"
        }
      ],
      "payable": false,
      "stateMutability": "nonpayable",
      "type": "function"
    },
    {
      "constant": false,
      "inputs": [
        {
          "name": "_id",
          "type": "uint256"
        },
        {
          "name": "_smoking",
          "type": "string"
        },
        {
          "name": "_fam_cancer",
          "type": "string"
        },
        {
          "name": "_med_bmi",
          "type": "uint256"
        },
        {
          "name": "_assess_act_days_per_week",
          "type": "uint256"
        }
      ],
      "name": "upstream_data_from_client",
      "outputs": [
        {
          "name": "",
          "type": "string"
        }
      ],
      "payable": false,
      "stateMutability": "nonpayable",
      "type": "function"
    },
    {
      "constant": true,
      "inputs": [
        {
          "name": "_insurance_id",
          "type": "uint256"
        },
        {
          "name": "_data_type",
          "type": "string"
        }
      ],
      "name": "request_data_from_client",
      "outputs": [
        {
          "name": "",
          "type": "string"
        }
      ],
      "payable": false,
      "stateMutability": "view",
      "type": "function"
    }
  ],
  "bytecode": "0x608060405234801561001057600080fd5b50336000806101000a81548173ffffffffffffffffffffffffffffffffffffffff021916908373ffffffffffffffffffffffffffffffffffffffff160217905550610520604051908101604052806104f78152602001610cfc6104f7913960019080519060200190610083929190610089565b5061012e565b828054600181600116156101000203166002900490600052602060002090601f016020900481019282601f106100ca57805160ff19168380011785556100f8565b828001600101855582156100f8579182015b828111156100f75782518255916020019190600101906100dc565b5b5090506101059190610109565b5090565b61012b91905b8082111561012757600081600090555060010161010f565b5090565b90565b610bbf8061013d6000396000f300608060405260043610610062576000357c0100000000000000000000000000000000000000000000000000000000900463ffffffff1680633c13839e1461006757806374532de0146100fc578063bed34bba14610242578063f0dfa42114610309575b600080fd5b34801561007357600080fd5b506100e26004803603810190808035906020019092919080359060200190929190803590602001908201803590602001908080601f01602080910402602001604051908101604052809392919081815260200183838082843782019150505050505091929192905050506103f5565b604051808215151515815260200191505060405180910390f35b34801561010857600080fd5b506101c760048036038101908080359060200190929190803590602001908201803590602001908080601f0160208091040260200160405190810160405280939291908181526020018383808284378201915050505050509192919290803590602001908201803590602001908080601f01602080910402602001604051908101604052809392919081815260200183838082843782019150505050505091929192908035906020019092919080359060200190929190505050610599565b6040518080602001828103825283818151815260200191508051906020019080838360005b838110156102075780820151818401526020810190506101ec565b50505050905090810190601f1680156102345780820380516001836020036101000a031916815260200191505b509250505060405180910390f35b34801561024e57600080fd5b506102ef600480360381019080803590602001908201803590602001908080601f0160208091040260200160405190810160405280939291908181526020018383808284378201915050505050509192919290803590602001908201803590602001908080601f01602080910402602001604051908101604052809392919081815260200183838082843782019150505050505091929192905050506107b5565b604051808215151515815260200191505060405180910390f35b34801561031557600080fd5b5061037a60048036038101908080359060200190929190803590602001908201803590602001908080601f016020809104026020016040519081016040528093929190818152602001838380828437820191505050505050919291929050505061088e565b6040518080602001828103825283818151815260200191508051906020019080838360005b838110156103ba57808201518184015260208101905061039f565b50505050905090810190601f1680156103e75780820380516001836020036101000a031916815260200191505b509250505060405180910390f35b6000610100604051908101604052806040805190810160405280600881526020017f7374616e6461726400000000000000000000000000000000000000000000000081525081526020013373ffffffffffffffffffffffffffffffffffffffff16815260200184815260200183815260200160206040519081016040528060008152508152602001602060405190810160405280600081525081526020016000815260200160008152506002600086815260200190815260200160002060008201518160000190805190602001906104ce929190610a6e565b5060208201518160010160006101000a81548173ffffffffffffffffffffffffffffffffffffffff021916908373ffffffffffffffffffffffffffffffffffffffff16021790555060408201518160020155606082015181600301908051906020019061053c929190610a6e565b506080820151816004019080519060200190610559929190610a6e565b5060a0820151816005019080519060200190610576929190610a6e565b5060c0820151816006015560e08201518160070155905050600190509392505050565b60603373ffffffffffffffffffffffffffffffffffffffff166002600088815260200190815260200160002060010160009054906101000a900473ffffffffffffffffffffffffffffffffffffffff1673ffffffffffffffffffffffffffffffffffffffff1614151561069a576040517f08c379a000000000000000000000000000000000000000000000000000000000815260040180806020018281038252602d8152602001807f4f6e6c792074686520636c69656e74206163636f756e74206f776e657220636181526020017f6e2075706c6f616420646174610000000000000000000000000000000000000081525060400191505060405180910390fd5b846002600088815260200190815260200160002060040190805190602001906106c4929190610aee565b50826002600088815260200190815260200160002060060181905550816002600088815260200190815260200160002060070181905550600260008781526020019081526020016000206004018054600181600116156101000203166002900480601f0160208091040260200160405190810160405280929190818152602001828054600181600116156101000203166002900480156107a55780601f1061077a576101008083540402835291602001916107a5565b820191906000526020600020905b81548152906001019060200180831161078857829003601f168201915b5050505050905095945050505050565b6000816040518082805190602001908083835b6020831015156107ed57805182526020820191506020810190506020830392506107c8565b6001836020036101000a038019825116818451168082178552505050505050905001915050604051809103902060001916836040518082805190602001908083835b602083101515610854578051825260208201915060208101905060208303925061082f565b6001836020036101000a03801982511681845116808217855250505050505090500191505060405180910390206000191614905092915050565b60606000809054906101000a900473ffffffffffffffffffffffffffffffffffffffff1673ffffffffffffffffffffffffffffffffffffffff163373ffffffffffffffffffffffffffffffffffffffff1614151561097a576040517f08c379a000000000000000000000000000000000000000000000000000000000815260040180806020018281038252602e8152602001807f6f6e6c7920617574686f72697a656420696e737572616e6365732063616e206381526020017f6c61696d2074686973206461746100000000000000000000000000000000000081525060400191505060405180910390fd5b600115156109bd836040805190810160405280600581526020017f73746570730000000000000000000000000000000000000000000000000000008152506107b5565b15151415610a675760018054600181600116156101000203166002900480601f016020809104026020016040519081016040528092919081815260200182805460018160011615610100020316600290048015610a5b5780601f10610a3057610100808354040283529160200191610a5b565b820191906000526020600020905b815481529060010190602001808311610a3e57829003601f168201915b50505050509050610a68565b5b92915050565b828054600181600116156101000203166002900490600052602060002090601f016020900481019282601f10610aaf57805160ff1916838001178555610add565b82800160010185558215610add579182015b82811115610adc578251825591602001919060010190610ac1565b5b509050610aea9190610b6e565b5090565b828054600181600116156101000203166002900490600052602060002090601f016020900481019282601f10610b2f57805160ff1916838001178555610b5d565b82800160010185558215610b5d579182015b82811115610b5c578251825591602001919060010190610b41565b5b509050610b6a9190610b6e565b5090565b610b9091905b80821115610b8c576000816000905550600101610b74565b5090565b905600a165627a7a723058202c2e11ca281cb062e9ac97d048006c52541cda4e9a3f1cd60b0421457d229e0400297b353530303230303736303a207b6167653a2033362c2067656e6465723a204d616c652c20736d6f6b696e673a204e6576657220736d6f6b65642c2066616d5f63616e6365723a204e6f2c206d65645f626d693a2031332e342c206173736573735f6163745f646179735f7065725f7765656b3a20342e307d2c20353530303230313430343a207b6167653a2034302c2067656e6465723a204d616c652c20736d6f6b696e673a204e6576657220736d6f6b65642c2066616d5f63616e6365723a204e614e2c206d65645f626d693a2032332e342c206173736573735f6163745f646179735f7065725f7765656b3a20302e307d2c20353530303230323033303a207b6167653a2035372c2067656e6465723a204d616c652c20736d6f6b696e673a204e614e2c2066616d5f63616e6365723a204e614e2c206d65645f626d693a2032322e362c206173736573735f6163745f646179735f7065725f7765656b3a204e614e7d2c20353530303230323739303a207b6167653a2034362c2067656e6465723a204d616c652c20736d6f6b696e673a204e6f7420736d6f6b696e672c20627574207573656420746f20736d6f6b65206265666f72652c2066616d5f63616e6365723a204e6f2c206d65645f626d693a2032312e382c206173736573735f6163745f646179735f7065725f7765656b3a20322e307d2c20353530303230323832343a207b6167653a2034322c2067656e6465723a204d616c652c20736d6f6b696e673a204e6576657220736d6f6b65642c2066616d5f63616e6365723a204e6f2c206d65645f626d693a204e614e2c206173736573735f6163745f646179735f7065725f7765656b3a20332e307d2c20353530303230333037393a207b6167653a2033392c2067656e6465723a2046656d616c652c20736d6f6b696e673a204e6576657220736d6f6b65642c2066616d5f63616e6365723a204e614e2c206d65645f626d693a2031392e312c206173736573735f6163745f646179735f7065725f7765656b3a20322e307d2c20353530303230333139343a207b6167653a2035312c2067656e6465723a2046656d616c652c20736d6f6b696e673a204e6576657220736d6f6b65642c2066616d5f63616e6365723a204e6f2c206d65645f626d693a2032302e312c206173736573735f6163745f646179735f7065725f7765656b3a20352e307d2c20353530303230373231313a207b6167653a2033352c2067656e6465723a2046656d616c652c20736d6f6b696e673a204e6576657220736d6f6b65642c2066616d5f63616e6365723a204e6f2c206d65645f626d693a2032322e332c206173736573735f6163745f646179735f7065725f7765656b3a20302e307d2c20353530303230373430313a207b6167653a2032352c2067656e6465723a204d616c652c20736d6f6b696e673a204e6576657220736d6f6b65642c2066616d5f63616e6365723a204e6f2c206d65645f626d693a2032332e302c206173736573735f6163745f646179735f7065725f7765656b3a20322e307d2c20353530303230373435303a207b6167653a2034332c2067656e6465723a2046656d616c652c20736d6f6b696e673a204e6f7420736d6f6b696e672c20627574207573656420746f20736d6f6b65206265666f72652c2066616d5f63616e6365723a204e614e2c206d65645f626d693a204e614e2c206173736573735f6163745f646179735f7065725f7765656b3a20312e307d7d",
  "source": "pragma solidity ^0.4.8;\n\n\ncontract InsurancePlatform {\n\n\tenum Gender {\n\t    Male,\n\t    Female,\n\t    Other\n\t}\n\n\taddress authorized_insurances_id;\n\tstring data_string;\n\t// create a new mapping with uID \n\tmapping(uint =>InsureeData) insuree_data;\n\n\tconstructor() public {\n        authorized_insurances_id = msg.sender;\n\t\tdata_string = \"{5500200760: {age: 36, gender: Male, smoking: Never smoked, fam_cancer: No, med_bmi: 13.4, assess_act_days_per_week: 4.0}, 5500201404: {age: 40, gender: Male, smoking: Never smoked, fam_cancer: NaN, med_bmi: 23.4, assess_act_days_per_week: 0.0}, 5500202030: {age: 57, gender: Male, smoking: NaN, fam_cancer: NaN, med_bmi: 22.6, assess_act_days_per_week: NaN}, 5500202790: {age: 46, gender: Male, smoking: Not smoking, but used to smoke before, fam_cancer: No, med_bmi: 21.8, assess_act_days_per_week: 2.0}, 5500202824: {age: 42, gender: Male, smoking: Never smoked, fam_cancer: No, med_bmi: NaN, assess_act_days_per_week: 3.0}, 5500203079: {age: 39, gender: Female, smoking: Never smoked, fam_cancer: NaN, med_bmi: 19.1, assess_act_days_per_week: 2.0}, 5500203194: {age: 51, gender: Female, smoking: Never smoked, fam_cancer: No, med_bmi: 20.1, assess_act_days_per_week: 5.0}, 5500207211: {age: 35, gender: Female, smoking: Never smoked, fam_cancer: No, med_bmi: 22.3, assess_act_days_per_week: 0.0}, 5500207401: {age: 25, gender: Male, smoking: Never smoked, fam_cancer: No, med_bmi: 23.0, assess_act_days_per_week: 2.0}, 5500207450: {age: 43, gender: Female, smoking: Not smoking, but used to smoke before, fam_cancer: NaN, med_bmi: NaN, assess_act_days_per_week: 1.0}}\";\n\t\t  }\n\n\t// main structure for employee / insuree data\n\tstruct InsureeData {\n\t\tstring insuree_type;\n\t\taddress eth_address;\n\t\tuint age;\n\t\tstring gender;\n\t\tstring smoking;\n\t\tstring fam_cancer;\n\t\tuint med_bmi;\n\t\tuint assess_act_days_per_week;\n\t\t//mapping (string => bool) data_streams;\n\t}\n\n\t// main structure for insurances\n\tstruct AuthorizedInsurances{\n\t\tstring insurane_name;\n\t}\n\n\tfunction compareStrings (string a, string b) view returns (bool){\n\t       return keccak256(a) == keccak256(b);\n\t   }\n\n\t//InsureeData[] private insuree_data;\n\n\t//mapping(uint =>AuthorizedInsurances) authorized_insurances;\n\t//authorized_insurances_id = 18192001;\n\n\tfunction register_insuree (uint _id, uint _age, string _gender) public returns (bool) {\n\t\tinsuree_data[_id] = InsureeData({\n\t\t//insuree_data.push( InsureeData({\n\t\t\tinsuree_type : \"standard\",\n\t\t\teth_address: msg.sender,\n\t\t\tage: _age,\n\t\t\tgender: _gender,\n\t\t\tsmoking: \"\",\n\t\t\tfam_cancer: \"\",\n\t\t\tmed_bmi: 0, \n\t\t\tassess_act_days_per_week:0\n\t\t\t});\n\t\treturn true;\n\t}\n\n\tfunction upstream_data_from_client(uint _id, string _smoking, string _fam_cancer, \n\t\tuint _med_bmi, uint _assess_act_days_per_week) public returns (string) {\n\t\trequire(insuree_data[_id].eth_address == msg.sender, \n\t\t\t\"Only the client account owner can upload data\");\n\t\tinsuree_data[_id].smoking = _smoking;\n\t\tinsuree_data[_id].med_bmi = _med_bmi;\n\t\tinsuree_data[_id].assess_act_days_per_week = _assess_act_days_per_week;\n\t\treturn(insuree_data[_id].smoking);\n\t}\n\n\tfunction request_data_from_client(uint _insurance_id, string _data_type) public view returns(string) {\n\n\t\trequire(msg.sender == authorized_insurances_id, \"only authorized insurances can claim this data\");\n\t\tif (compareStrings(_data_type, \"steps\") == true) {\n\t\t\treturn data_string;\n\t\t}\n\t}\n\n\n\t// function updateShares(uint _share) public {\n\t// \tshares[msg.sender] = getShares(msg.sender) + _share;\n\t// }\n\n\t// function getShares(address _addr) public view returns(uint) {\n\t// \treturn shares[_addr];\n\t// }\n\n  //function testNestedMappings() {\n    //@log test nested mappings\n    //mymap[1][2] = 42;\n    //@log mymap[1][2] = `uint mymap[1][2]`\n    //@log test struct array:\n    //@log someName[msg.sender][1].length = `uint someName[msg.sender][1].length`\n    //@log incrementing length\n    // someName[msg.sender][1].length++;\n    // //@log saving timestamp to last entry\n    // someName[msg.sender][1][someName[msg.sender][1].length - 1].timestamp = block.timestamp;\n    // //@log `uint someName[msg.sender][1][someName[msg.sender][1].length-1].timestamp`\n\n      }\n",
  "sourcePath": "/home/basilev/code/aiahackathaon/platformcontract/contracts/Platform.sol",
  "compiler": {
    "name": "solc",
    "version": "0.4.24+commit.e67f0147.Emscripten.clang"
  },
  "schemaVersion": "2.0.1",
  "updatedAt": "2018-11-18T06:20:26.283Z"
}